{"contracts/Treasury.sol":{"Treasury":{"abi":[{"inputs":[],"name":"totalFund","outputs":[{"internalType":"uint256","name":"","type":"uint256"}],"stateMutability":"view","type":"function"},{"stateMutability":"payable","type":"receive"}],"evm":{"bytecode":{"linkReferences":{},"object":"608060405234801561001057600080fd5b50610129806100206000396000f3fe608060405260043610601f5760003560e01c8063100aca4714603b576036565b3660365734600054602f919060a0565b6000819055005b600080fd5b348015604657600080fd5b50604d6061565b6040516058919060da565b60405180910390f35b60005481565b6000819050919050565b7f4e487b7100000000000000000000000000000000000000000000000000000000600052601160045260246000fd5b600060a9826067565b915060b2836067565b925082820190508082111560c75760c66071565b5b92915050565b60d4816067565b82525050565b600060208201905060ed600083018460cd565b9291505056fea2646970667358221220d2b13f1efe95819eab99fbc4dd6a0fbd0ca1cea24c6abe8dc2b861052319e3e164736f6c63430008110033","opcodes":"PUSH1 0x80 PUSH1 0x40 MSTORE CALLVALUE DUP1 ISZERO PUSH2 0x10 JUMPI PUSH1 0x0 DUP1 REVERT JUMPDEST POP PUSH2 0x129 DUP1 PUSH2 0x20 PUSH1 0x0 CODECOPY PUSH1 0x0 RETURN INVALID PUSH1 0x80 PUSH1 0x40 MSTORE PUSH1 0x4 CALLDATASIZE LT PUSH1 0x1F JUMPI PUSH1 0x0 CALLDATALOAD PUSH1 0xE0 SHR DUP1 PUSH4 0x100ACA47 EQ PUSH1 0x3B JUMPI PUSH1 0x36 JUMP JUMPDEST CALLDATASIZE PUSH1 0x36 JUMPI CALLVALUE PUSH1 0x0 SLOAD PUSH1 0x2F SWAP2 SWAP1 PUSH1 0xA0 JUMP JUMPDEST PUSH1 0x0 DUP2 SWAP1 SSTORE STOP JUMPDEST PUSH1 0x0 DUP1 REVERT JUMPDEST CALLVALUE DUP1 ISZERO PUSH1 0x46 JUMPI PUSH1 0x0 DUP1 REVERT JUMPDEST POP PUSH1 0x4D PUSH1 0x61 JUMP JUMPDEST PUSH1 0x40 MLOAD PUSH1 0x58 SWAP2 SWAP1 PUSH1 0xDA JUMP JUMPDEST PUSH1 0x40 MLOAD DUP1 SWAP2 SUB SWAP1 RETURN JUMPDEST PUSH1 0x0 SLOAD DUP2 JUMP JUMPDEST PUSH1 0x0 DUP2 SWAP1 POP SWAP2 SWAP1 POP JUMP JUMPDEST PUSH32 0x4E487B7100000000000000000000000000000000000000000000000000000000 PUSH1 0x0 MSTORE PUSH1 0x11 PUSH1 0x4 MSTORE PUSH1 0x24 PUSH1 0x0 REVERT JUMPDEST PUSH1 0x0 PUSH1 0xA9 DUP3 PUSH1 0x67 JUMP JUMPDEST SWAP2 POP PUSH1 0xB2 DUP4 PUSH1 0x67 JUMP JUMPDEST SWAP3 POP DUP3 DUP3 ADD SWAP1 POP DUP1 DUP3 GT ISZERO PUSH1 0xC7 JUMPI PUSH1 0xC6 PUSH1 0x71 JUMP JUMPDEST JUMPDEST SWAP3 SWAP2 POP POP JUMP JUMPDEST PUSH1 0xD4 DUP2 PUSH1 0x67 JUMP JUMPDEST DUP3 MSTORE POP POP JUMP JUMPDEST PUSH1 0x0 PUSH1 0x20 DUP3 ADD SWAP1 POP PUSH1 0xED PUSH1 0x0 DUP4 ADD DUP5 PUSH1 0xCD JUMP JUMPDEST SWAP3 SWAP2 POP POP JUMP INVALID LOG2 PUSH5 0x6970667358 0x22 SLT KECCAK256 0xD2 0xB1 EXTCODEHASH 0x1E INVALID SWAP6 DUP2 SWAP15 0xAB SWAP10 0xFB 0xC4 0xDD PUSH11 0xFBD0CA1CEA24C6ABE8DC2 0xB8 PUSH2 0x523 NOT 0xE3 0xE1 PUSH5 0x736F6C6343 STOP ADDMOD GT STOP CALLER "},"methodIdentifiers":{"totalFund()":"100aca47"}}}}}