{
  "_format": "hh-sol-artifact-1",
  "contractName": "DAO",
  "sourceName": "contracts/DAO.sol",
  "abi": [
    {
      "inputs": [
        {
          "internalType": "address[]",
          "name": "_tokenHolders",
          "type": "address[]"
        },
        {
          "internalType": "uint256",
          "name": "_value",
          "type": "uint256"
        },
        {
          "internalType": "uint256",
          "name": "_voteRequired",
          "type": "uint256"
        }
      ],
      "stateMutability": "nonpayable",
      "type": "constructor"
    },
    {
      "anonymous": false,
      "inputs": [
        {
          "indexed": true,
          "internalType": "address",
          "name": "owner",
          "type": "address"
        },
        {
          "indexed": true,
          "internalType": "address",
          "name": "spender",
          "type": "address"
        },
        {
          "indexed": false,
          "internalType": "uint256",
          "name": "amount",
          "type": "uint256"
        }
      ],
      "name": "Approval",
      "type": "event"
    },
    {
      "anonymous": false,
      "inputs": [
        {
          "indexed": true,
          "internalType": "address",
          "name": "from",
          "type": "address"
        },
        {
          "indexed": true,
          "internalType": "address",
          "name": "to",
          "type": "address"
        },
        {
          "indexed": false,
          "internalType": "uint256",
          "name": "amount",
          "type": "uint256"
        }
      ],
      "name": "Transfer",
      "type": "event"
    },
    {
      "inputs": [
        {
          "internalType": "uint256",
          "name": "_propIndex",
          "type": "uint256"
        }
      ],
      "name": "addConfirmWith",
      "outputs": [
        {
          "internalType": "uint256",
          "name": "",
          "type": "uint256"
        }
      ],
      "stateMutability": "view",
      "type": "function"
    },
    {
      "inputs": [
        {
          "internalType": "address",
          "name": "",
          "type": "address"
        },
        {
          "internalType": "address",
          "name": "",
          "type": "address"
        }
      ],
      "name": "allowance",
      "outputs": [
        {
          "internalType": "uint256",
          "name": "",
          "type": "uint256"
        }
      ],
      "stateMutability": "view",
      "type": "function"
    },
    {
      "inputs": [
        {
          "internalType": "address",
          "name": "",
          "type": "address"
        }
      ],
      "name": "balanceOf",
      "outputs": [
        {
          "internalType": "uint256",
          "name": "",
          "type": "uint256"
        }
      ],
      "stateMutability": "view",
      "type": "function"
    },
    {
      "inputs": [
        {
          "internalType": "uint256",
          "name": "_propIndex",
          "type": "uint256"
        }
      ],
      "name": "confirmProposal",
      "outputs": [],
      "stateMutability": "nonpayable",
      "type": "function"
    },
    {
      "inputs": [
        {
          "internalType": "uint256",
          "name": "",
          "type": "uint256"
        },
        {
          "internalType": "address",
          "name": "",
          "type": "address"
        }
      ],
      "name": "confirmedWith",
      "outputs": [
        {
          "internalType": "uint256",
          "name": "",
          "type": "uint256"
        }
      ],
      "stateMutability": "view",
      "type": "function"
    },
    {
      "inputs": [
        {
          "internalType": "uint256",
          "name": "_propIndex",
          "type": "uint256"
        }
      ],
      "name": "executeProposal",
      "outputs": [],
      "stateMutability": "nonpayable",
      "type": "function"
    },
    {
      "inputs": [
        {
          "internalType": "uint256",
          "name": "_propIndex",
          "type": "uint256"
        }
      ],
      "name": "fundTransfer",
      "outputs": [],
      "stateMutability": "payable",
      "type": "function"
    },
    {
      "inputs": [
        {
          "internalType": "address",
          "name": "_account",
          "type": "address"
        }
      ],
      "name": "getAccountBalance",
      "outputs": [
        {
          "internalType": "uint256",
          "name": "",
          "type": "uint256"
        }
      ],
      "stateMutability": "view",
      "type": "function"
    },
    {
      "inputs": [],
      "name": "getContractBalance",
      "outputs": [
        {
          "internalType": "uint256",
          "name": "",
          "type": "uint256"
        }
      ],
      "stateMutability": "view",
      "type": "function"
    },
    {
      "inputs": [
        {
          "internalType": "uint256",
          "name": "",
          "type": "uint256"
        },
        {
          "internalType": "address",
          "name": "",
          "type": "address"
        }
      ],
      "name": "isConfirmed",
      "outputs": [
        {
          "internalType": "bool",
          "name": "",
          "type": "bool"
        }
      ],
      "stateMutability": "view",
      "type": "function"
    },
    {
      "inputs": [
        {
          "internalType": "uint256",
          "name": "",
          "type": "uint256"
        }
      ],
      "name": "proposals",
      "outputs": [
        {
          "internalType": "uint256",
          "name": "requiredAmount",
          "type": "uint256"
        },
        {
          "internalType": "address",
          "name": "accountNumber",
          "type": "address"
        },
        {
          "internalType": "uint256",
          "name": "voteCount",
          "type": "uint256"
        },
        {
          "internalType": "bool",
          "name": "executed",
          "type": "bool"
        },
        {
          "internalType": "uint256",
          "name": "timeStamp",
          "type": "uint256"
        }
      ],
      "stateMutability": "view",
      "type": "function"
    },
    {
      "inputs": [
        {
          "internalType": "uint256",
          "name": "_propIndex",
          "type": "uint256"
        }
      ],
      "name": "revokeConfirmation",
      "outputs": [],
      "stateMutability": "nonpayable",
      "type": "function"
    },
    {
      "inputs": [
        {
          "internalType": "uint256",
          "name": "_requirendAmount",
          "type": "uint256"
        },
        {
          "internalType": "address",
          "name": "_accountNumber",
          "type": "address"
        },
        {
          "internalType": "uint256",
          "name": "_timeStamp",
          "type": "uint256"
        }
      ],
      "name": "submitProposal",
      "outputs": [],
      "stateMutability": "nonpayable",
      "type": "function"
    },
    {
      "inputs": [],
      "name": "totalFund",
      "outputs": [
        {
          "internalType": "uint256",
          "name": "",
          "type": "uint256"
        }
      ],
      "stateMutability": "view",
      "type": "function"
    },
    {
      "inputs": [],
      "name": "totalSupply",
      "outputs": [
        {
          "internalType": "uint256",
          "name": "",
          "type": "uint256"
        }
      ],
      "stateMutability": "view",
      "type": "function"
    },
    {
      "inputs": [
        {
          "internalType": "address",
          "name": "recipient",
          "type": "address"
        },
        {
          "internalType": "uint256",
          "name": "amount",
          "type": "uint256"
        }
      ],
      "name": "transfer",
      "outputs": [
        {
          "internalType": "bool",
          "name": "",
          "type": "bool"
        }
      ],
      "stateMutability": "nonpayable",
      "type": "function"
    },
    {
      "inputs": [],
      "name": "voteRequired",
      "outputs": [
        {
          "internalType": "uint256",
          "name": "",
          "type": "uint256"
        }
      ],
      "stateMutability": "view",
      "type": "function"
    },
    {
      "stateMutability": "payable",
      "type": "receive"
    }
  ],
  "bytecode": "0x60806040526103e86000556040518060400160405280600b81526020017f417070696e76656e74697600000000000000000000000000000000000000000081525060039081620000509190620005fd565b506040518060400160405280600381526020017f415050000000000000000000000000000000000000000000000000000000000081525060049081620000979190620005fd565b506012600560006101000a81548160ff021916908360ff160217905550348015620000c157600080fd5b50604051620027c7380380620027c78339818101604052810190620000e79190620008d4565b82826000825182620000fa91906200097e565b9050825182826200010c9190620009f8565b146200014f576040517f08c379a0000000000000000000000000000000000000000000000000000000008152600401620001469062000a91565b60405180910390fd5b80600054101562000197576040517f08c379a00000000000000000000000000000000000000000000000000000000081526004016200018e9062000b03565b60405180910390fd5b60005b83518110156200036f578260016000868481518110620001bf57620001be62000b25565b5b602002602001015173ffffffffffffffffffffffffffffffffffffffff1673ffffffffffffffffffffffffffffffffffffffff168152602001908152602001600020600082825462000212919062000b54565b92505081905550826000808282546200022c919062000b8f565b9250508190555082600160008684815181106200024e576200024d62000b25565b5b602002602001015173ffffffffffffffffffffffffffffffffffffffff1673ffffffffffffffffffffffffffffffffffffffff168152602001908152602001600020541015620002d5576040517f08c379a0000000000000000000000000000000000000000000000000000000008152600401620002cc9062000a91565b60405180910390fd5b838181518110620002eb57620002ea62000b25565b5b602002602001015173ffffffffffffffffffffffffffffffffffffffff163073ffffffffffffffffffffffffffffffffffffffff167fddf252ad1be2c89b69c2b068fc378daa952ba7f163c4a11628f55a4df523b3ef8560405162000351919062000bdb565b60405180910390a38080620003669062000bf8565b9150506200019a565b505050508060078190555050505062000c45565b600081519050919050565b7f4e487b7100000000000000000000000000000000000000000000000000000000600052604160045260246000fd5b7f4e487b7100000000000000000000000000000000000000000000000000000000600052602260045260246000fd5b600060028204905060018216806200040557607f821691505b6020821081036200041b576200041a620003bd565b5b50919050565b60008190508160005260206000209050919050565b60006020601f8301049050919050565b600082821b905092915050565b600060088302620004857fffffffffffffffffffffffffffffffffffffffffffffffffffffffffffffffff8262000446565b62000491868362000446565b95508019841693508086168417925050509392505050565b6000819050919050565b6000819050919050565b6000620004de620004d8620004d284620004a9565b620004b3565b620004a9565b9050919050565b6000819050919050565b620004fa83620004bd565b620005126200050982620004e5565b84845462000453565b825550505050565b600090565b620005296200051a565b62000536818484620004ef565b505050565b5b818110156200055e57620005526000826200051f565b6001810190506200053c565b5050565b601f821115620005ad57620005778162000421565b620005828462000436565b8101602085101562000592578190505b620005aa620005a18562000436565b8301826200053b565b50505b505050565b600082821c905092915050565b6000620005d260001984600802620005b2565b1980831691505092915050565b6000620005ed8383620005bf565b9150826002028217905092915050565b620006088262000383565b67ffffffffffffffff8111156200062457620006236200038e565b5b620006308254620003ec565b6200063d82828562000562565b600060209050601f83116001811462000675576000841562000660578287015190505b6200066c8582620005df565b865550620006dc565b601f198416620006858662000421565b60005b82811015620006af5784890151825560018201915060208501945060208101905062000688565b86831015620006cf5784890151620006cb601f891682620005bf565b8355505b6001600288020188555050505b505050505050565b6000604051905090565b600080fd5b600080fd5b600080fd5b6000601f19601f8301169050919050565b6200071982620006fd565b810181811067ffffffffffffffff821117156200073b576200073a6200038e565b5b80604052505050565b600062000750620006e4565b90506200075e82826200070e565b919050565b600067ffffffffffffffff8211156200078157620007806200038e565b5b602082029050602081019050919050565b600080fd5b600073ffffffffffffffffffffffffffffffffffffffff82169050919050565b6000620007c48262000797565b9050919050565b620007d681620007b7565b8114620007e257600080fd5b50565b600081519050620007f681620007cb565b92915050565b6000620008136200080d8462000763565b62000744565b9050808382526020820190506020840283018581111562000839576200083862000792565b5b835b81811015620008665780620008518882620007e5565b8452602084019350506020810190506200083b565b5050509392505050565b600082601f830112620008885762000887620006f8565b5b81516200089a848260208601620007fc565b91505092915050565b620008ae81620004a9565b8114620008ba57600080fd5b50565b600081519050620008ce81620008a3565b92915050565b600080600060608486031215620008f057620008ef620006ee565b5b600084015167ffffffffffffffff811115620009115762000910620006f3565b5b6200091f8682870162000870565b93505060206200093286828701620008bd565b92505060406200094586828701620008bd565b9150509250925092565b7f4e487b7100000000000000000000000000000000000000000000000000000000600052601160045260246000fd5b60006200098b82620004a9565b91506200099883620004a9565b9250828202620009a881620004a9565b91508282048414831517620009c257620009c16200094f565b5b5092915050565b7f4e487b7100000000000000000000000000000000000000000000000000000000600052601260045260246000fd5b600062000a0582620004a9565b915062000a1283620004a9565b92508262000a255762000a24620009c9565b5b828204905092915050565b600082825260208201905092915050565b7f4f76657220466c6f7720436f6e646974696f6e2e000000000000000000000000600082015250565b600062000a7960148362000a30565b915062000a868262000a41565b602082019050919050565b6000602082019050818103600083015262000aac8162000a6a565b9050919050565b7f556e64657220466c6f7720436f6e646974696f6e2e0000000000000000000000600082015250565b600062000aeb60158362000a30565b915062000af88262000ab3565b602082019050919050565b6000602082019050818103600083015262000b1e8162000adc565b9050919050565b7f4e487b7100000000000000000000000000000000000000000000000000000000600052603260045260246000fd5b600062000b6182620004a9565b915062000b6e83620004a9565b925082820190508082111562000b895762000b886200094f565b5b92915050565b600062000b9c82620004a9565b915062000ba983620004a9565b925082820390508181111562000bc45762000bc36200094f565b5b92915050565b62000bd581620004a9565b82525050565b600060208201905062000bf2600083018462000bca565b92915050565b600062000c0582620004a9565b91507fffffffffffffffffffffffffffffffffffffffffffffffffffffffffffffffff820362000c3a5762000c396200094f565b5b600182019050919050565b611b728062000c556000396000f3fe6080604052600436106101025760003560e01c806393423e9c11610095578063a9059cbb11610064578063a9059cbb14610391578063aef3070c146103ce578063dd62ed3e146103f7578063eaf8294b14610434578063f4a4f4d2146104505761011c565b806393423e9c146102af5780639cf0bc49146102ec578063a7972b7d14610317578063a8ca2044146103545761011c565b806320ea8d86116100d157806320ea8d86146101e15780636f9fb98a1461020a57806370a082311461023557806380f59a65146102725761011c565b8063013cf08b146101215780630d61b51914610162578063100aca471461018b57806318160ddd146101b65761011c565b3661011c5734600654610115919061140a565b6006819055005b600080fd5b34801561012d57600080fd5b506101486004803603810190610143919061146f565b610479565b604051610159959493929190611507565b60405180910390f35b34801561016e57600080fd5b506101896004803603810190610184919061146f565b6104ec565b005b34801561019757600080fd5b506101a06106d7565b6040516101ad919061155a565b60405180910390f35b3480156101c257600080fd5b506101cb6106dd565b6040516101d8919061155a565b60405180910390f35b3480156101ed57600080fd5b506102086004803603810190610203919061146f565b6106e3565b005b34801561021657600080fd5b5061021f610a21565b60405161022c919061155a565b60405180910390f35b34801561024157600080fd5b5061025c600480360381019061025791906115a1565b610a29565b604051610269919061155a565b60405180910390f35b34801561027e57600080fd5b50610299600480360381019061029491906115ce565b610a41565b6040516102a6919061160e565b60405180910390f35b3480156102bb57600080fd5b506102d660048036038101906102d191906115a1565b610a70565b6040516102e3919061155a565b60405180910390f35b3480156102f857600080fd5b50610301610a91565b60405161030e919061155a565b60405180910390f35b34801561032357600080fd5b5061033e600480360381019061033991906115ce565b610a97565b60405161034b919061155a565b60405180910390f35b34801561036057600080fd5b5061037b6004803603810190610376919061146f565b610abc565b604051610388919061155a565b60405180910390f35b34801561039d57600080fd5b506103b860048036038101906103b39190611629565b610b97565b6040516103c5919061160e565b60405180910390f35b3480156103da57600080fd5b506103f560048036038101906103f09190611669565b610d36565b005b34801561040357600080fd5b5061041e600480360381019061041991906116bc565b610e39565b60405161042b919061155a565b60405180910390f35b61044e6004803603810190610449919061146f565b610e5e565b005b34801561045c57600080fd5b506104776004803603810190610472919061146f565b61100d565b005b6008818154811061048957600080fd5b90600052602060002090600502016000915090508060000154908060010160009054906101000a900473ffffffffffffffffffffffffffffffffffffffff16908060020154908060030160009054906101000a900460ff16908060040154905085565b6000600160003373ffffffffffffffffffffffffffffffffffffffff1673ffffffffffffffffffffffffffffffffffffffff168152602001908152602001600020540361056e576040517f08c379a000000000000000000000000000000000000000000000000000000000815260040161056590611759565b60405180910390fd5b8060088054905081106105b6576040517f08c379a00000000000000000000000000000000000000000000000000000000081526004016105ad906117c5565b60405180910390fd5b81600881815481106105cb576105ca6117e5565b5b906000526020600020906005020160030160009054906101000a900460ff161561062a576040517f08c379a000000000000000000000000000000000000000000000000000000000815260040161062190611860565b60405180910390fd5b60075460088481548110610641576106406117e5565b5b9060005260206000209060050201600201541015610694576040517f08c379a000000000000000000000000000000000000000000000000000000000815260040161068b906118cc565b60405180910390fd5b6001600884815481106106aa576106a96117e5565b5b906000526020600020906005020160030160006101000a81548160ff021916908315150217905550505050565b60065481565b60005481565b6000600160003373ffffffffffffffffffffffffffffffffffffffff1673ffffffffffffffffffffffffffffffffffffffff1681526020019081526020016000205403610765576040517f08c379a000000000000000000000000000000000000000000000000000000000815260040161075c90611759565b60405180910390fd5b8060088054905081106107ad576040517f08c379a00000000000000000000000000000000000000000000000000000000081526004016107a4906117c5565b60405180910390fd5b81600881815481106107c2576107c16117e5565b5b906000526020600020906005020160030160009054906101000a900460ff1615610821576040517f08c379a000000000000000000000000000000000000000000000000000000000815260040161081890611860565b60405180910390fd5b824260088281548110610837576108366117e5565b5b90600052602060002090600502016004015411610889576040517f08c379a000000000000000000000000000000000000000000000000000000000815260040161088090611938565b60405180910390fd5b6009600085815260200190815260200160002060003373ffffffffffffffffffffffffffffffffffffffff1673ffffffffffffffffffffffffffffffffffffffff16815260200190815260200160002060009054906101000a900460ff16610926576040517f08c379a000000000000000000000000000000000000000000000000000000000815260040161091d906119a4565b60405180910390fd5b600a600085815260200190815260200160002060003373ffffffffffffffffffffffffffffffffffffffff1673ffffffffffffffffffffffffffffffffffffffff168152602001908152602001600020546008858154811061098b5761098a6117e5565b5b906000526020600020906005020160020160008282546109ab91906119c4565b9250508190555060006009600086815260200190815260200160002060003373ffffffffffffffffffffffffffffffffffffffff1673ffffffffffffffffffffffffffffffffffffffff16815260200190815260200160002060006101000a81548160ff02191690831515021790555050505050565b600047905090565b60016020528060005260406000206000915090505481565b60096020528160005260406000206020528060005260406000206000915091509054906101000a900460ff1681565b60008173ffffffffffffffffffffffffffffffffffffffff16319050919050565b60075481565b600a602052816000526040600020602052806000526040600020600091509150505481565b600080600160003373ffffffffffffffffffffffffffffffffffffffff1673ffffffffffffffffffffffffffffffffffffffff1681526020019081526020016000205403610b3f576040517f08c379a0000000000000000000000000000000000000000000000000000000008152600401610b3690611759565b60405180910390fd5b600a600083815260200190815260200160002060003373ffffffffffffffffffffffffffffffffffffffff1673ffffffffffffffffffffffffffffffffffffffff168152602001908152602001600020549050919050565b600081600160003373ffffffffffffffffffffffffffffffffffffffff1673ffffffffffffffffffffffffffffffffffffffff168152602001908152602001600020541015610c1b576040517f08c379a0000000000000000000000000000000000000000000000000000000008152600401610c1290611a44565b60405180910390fd5b81600160003373ffffffffffffffffffffffffffffffffffffffff1673ffffffffffffffffffffffffffffffffffffffff1681526020019081526020016000206000828254610c6a91906119c4565b9250508190555081600160008573ffffffffffffffffffffffffffffffffffffffff1673ffffffffffffffffffffffffffffffffffffffff1681526020019081526020016000206000828254610cc0919061140a565b925050819055508273ffffffffffffffffffffffffffffffffffffffff163373ffffffffffffffffffffffffffffffffffffffff167fddf252ad1be2c89b69c2b068fc378daa952ba7f163c4a11628f55a4df523b3ef84604051610d24919061155a565b60405180910390a36001905092915050565b60086040518060a001604052808581526020018473ffffffffffffffffffffffffffffffffffffffff168152602001600081526020016000151581526020018342610d81919061140a565b81525090806001815401808255809150506001900390600052602060002090600502016000909190919091506000820151816000015560208201518160010160006101000a81548173ffffffffffffffffffffffffffffffffffffffff021916908373ffffffffffffffffffffffffffffffffffffffff1602179055506040820151816002015560608201518160030160006101000a81548160ff021916908315150217905550608082015181600401555050505050565b6002602052816000526040600020602052806000526040600020600091509150505481565b6000600160003373ffffffffffffffffffffffffffffffffffffffff1673ffffffffffffffffffffffffffffffffffffffff1681526020019081526020016000205403610ee0576040517f08c379a0000000000000000000000000000000000000000000000000000000008152600401610ed790611759565b60405180910390fd5b6001151560088281548110610ef857610ef76117e5565b5b906000526020600020906005020160030160009054906101000a900460ff16151514610f59576040517f08c379a0000000000000000000000000000000000000000000000000000000008152600401610f5090611ab0565b60405180910390fd5b60088181548110610f6d57610f6c6117e5565b5b906000526020600020906005020160010160009054906101000a900473ffffffffffffffffffffffffffffffffffffffff1673ffffffffffffffffffffffffffffffffffffffff166108fc60088381548110610fcc57610fcb6117e5565b5b9060005260206000209060050201600001549081150290604051600060405180830381858888f19350505050158015611009573d6000803e3d6000fd5b5050565b6000600160003373ffffffffffffffffffffffffffffffffffffffff1673ffffffffffffffffffffffffffffffffffffffff168152602001908152602001600020540361108f576040517f08c379a000000000000000000000000000000000000000000000000000000000815260040161108690611759565b60405180910390fd5b8060088054905081106110d7576040517f08c379a00000000000000000000000000000000000000000000000000000000081526004016110ce906117c5565b60405180910390fd5b81600881815481106110ec576110eb6117e5565b5b906000526020600020906005020160030160009054906101000a900460ff161561114b576040517f08c379a000000000000000000000000000000000000000000000000000000000815260040161114290611860565b60405180910390fd5b826009600082815260200190815260200160002060003373ffffffffffffffffffffffffffffffffffffffff1673ffffffffffffffffffffffffffffffffffffffff16815260200190815260200160002060009054906101000a900460ff16156111ea576040517f08c379a00000000000000000000000000000000000000000000000000000000081526004016111e190611b1c565b60405180910390fd5b834260088281548110611200576111ff6117e5565b5b90600052602060002090600502016004015411611252576040517f08c379a000000000000000000000000000000000000000000000000000000000815260040161124990611938565b60405180910390fd5b600160003373ffffffffffffffffffffffffffffffffffffffff1673ffffffffffffffffffffffffffffffffffffffff16815260200190815260200160002054600a600087815260200190815260200160002060003373ffffffffffffffffffffffffffffffffffffffff1673ffffffffffffffffffffffffffffffffffffffff16815260200190815260200160002081905550600160003373ffffffffffffffffffffffffffffffffffffffff1673ffffffffffffffffffffffffffffffffffffffff168152602001908152602001600020546008868154811061133a576113396117e5565b5b9060005260206000209060050201600201600082825461135a919061140a565b9250508190555060016009600087815260200190815260200160002060003373ffffffffffffffffffffffffffffffffffffffff1673ffffffffffffffffffffffffffffffffffffffff16815260200190815260200160002060006101000a81548160ff0219169083151502179055505050505050565b6000819050919050565b7f4e487b7100000000000000000000000000000000000000000000000000000000600052601160045260246000fd5b6000611415826113d1565b9150611420836113d1565b9250828201905080821115611438576114376113db565b5b92915050565b600080fd5b61144c816113d1565b811461145757600080fd5b50565b60008135905061146981611443565b92915050565b6000602082840312156114855761148461143e565b5b60006114938482850161145a565b91505092915050565b6114a5816113d1565b82525050565b600073ffffffffffffffffffffffffffffffffffffffff82169050919050565b60006114d6826114ab565b9050919050565b6114e6816114cb565b82525050565b60008115159050919050565b611501816114ec565b82525050565b600060a08201905061151c600083018861149c565b61152960208301876114dd565b611536604083018661149c565b61154360608301856114f8565b611550608083018461149c565b9695505050505050565b600060208201905061156f600083018461149c565b92915050565b61157e816114cb565b811461158957600080fd5b50565b60008135905061159b81611575565b92915050565b6000602082840312156115b7576115b661143e565b5b60006115c58482850161158c565b91505092915050565b600080604083850312156115e5576115e461143e565b5b60006115f38582860161145a565b92505060206116048582860161158c565b9150509250929050565b600060208201905061162360008301846114f8565b92915050565b600080604083850312156116405761163f61143e565b5b600061164e8582860161158c565b925050602061165f8582860161145a565b9150509250929050565b6000806000606084860312156116825761168161143e565b5b60006116908682870161145a565b93505060206116a18682870161158c565b92505060406116b28682870161145a565b9150509250925092565b600080604083850312156116d3576116d261143e565b5b60006116e18582860161158c565b92505060206116f28582860161158c565b9150509250929050565b600082825260208201905092915050565b7f6e6f74206120746f6b656e20686f6c6465720000000000000000000000000000600082015250565b60006117436012836116fc565b915061174e8261170d565b602082019050919050565b6000602082019050818103600083015261177281611736565b9050919050565b7f70726f706f73616c20646f6573206e6f74206578697374730000000000000000600082015250565b60006117af6018836116fc565b91506117ba82611779565b602082019050919050565b600060208201905081810360008301526117de816117a2565b9050919050565b7f4e487b7100000000000000000000000000000000000000000000000000000000600052603260045260246000fd5b7f70726f706f73616c20616c726561647920657865637574656400000000000000600082015250565b600061184a6019836116fc565b915061185582611814565b602082019050919050565b600060208201905081810360008301526118798161183d565b9050919050565b7f766f74657320617265206e6f742073756666696369656e742e2e000000000000600082015250565b60006118b6601a836116fc565b91506118c182611880565b602082019050919050565b600060208201905081810360008301526118e5816118a9565b9050919050565b7f766f74696e672074696d65206973206f76657200000000000000000000000000600082015250565b60006119226013836116fc565b915061192d826118ec565b602082019050919050565b6000602082019050818103600083015261195181611915565b9050919050565b7f70726f706f73616c206973206e6f7420636f6e6669726d656400000000000000600082015250565b600061198e6019836116fc565b915061199982611958565b602082019050919050565b600060208201905081810360008301526119bd81611981565b9050919050565b60006119cf826113d1565b91506119da836113d1565b92508282039050818111156119f2576119f16113db565b5b92915050565b7f4e6f7420656e6f75676820746f6b656e73000000000000000000000000000000600082015250565b6000611a2e6011836116fc565b9150611a39826119f8565b602082019050919050565b60006020820190508181036000830152611a5d81611a21565b9050919050565b7f70726f706f73616c206973206e6f742065786563757465640000000000000000600082015250565b6000611a9a6018836116fc565b9150611aa582611a64565b602082019050919050565b60006020820190508181036000830152611ac981611a8d565b9050919050565b7f70726f706f73616c20697320616c726561647920636f6e6669726d6564000000600082015250565b6000611b06601d836116fc565b9150611b1182611ad0565b602082019050919050565b60006020820190508181036000830152611b3581611af9565b905091905056fea2646970667358221220ffda93c3fae84d347a7703dc57f1488e087584345b3b5a5f00e73d08316f760964736f6c63430008110033",
  "linkReferences": {},
  "deployedLinkReferences": {}
}