{
  "_format": "hh-sol-artifact-1",
  "contractName": "Treasury",
  "sourceName": "contracts/Treasury.sol",
  "abi": [
    {
      "inputs": [],
      "name": "totalFund",
      "outputs": [
        {
          "internalType": "uint256",
          "name": "",
          "type": "uint256"
        }
      ],
      "stateMutability": "view",
      "type": "function"
    },
    {
      "stateMutability": "payable",
      "type": "receive"
    }
  ],
  "bytecode": "0x608060405234801561001057600080fd5b50610129806100206000396000f3fe608060405260043610601f5760003560e01c8063100aca4714603b576036565b3660365734600054602f919060a0565b6000819055005b600080fd5b348015604657600080fd5b50604d6061565b6040516058919060da565b60405180910390f35b60005481565b6000819050919050565b7f4e487b7100000000000000000000000000000000000000000000000000000000600052601160045260246000fd5b600060a9826067565b915060b2836067565b925082820190508082111560c75760c66071565b5b92915050565b60d4816067565b82525050565b600060208201905060ed600083018460cd565b9291505056fea2646970667358221220d2b13f1efe95819eab99fbc4dd6a0fbd0ca1cea24c6abe8dc2b861052319e3e164736f6c63430008110033",
  "linkReferences": {},
  "deployedLinkReferences": {}
}