{
  "_format": "hh-sol-artifact-1",
  "contractName": "ERC20",
  "sourceName": "contracts/Token.sol",
  "abi": [
    {
      "inputs": [
        {
          "internalType": "address[]",
          "name": "_tokenHolders",
          "type": "address[]"
        },
        {
          "internalType": "uint256",
          "name": "_value",
          "type": "uint256"
        }
      ],
      "stateMutability": "nonpayable",
      "type": "constructor"
    },
    {
      "anonymous": false,
      "inputs": [
        {
          "indexed": true,
          "internalType": "address",
          "name": "owner",
          "type": "address"
        },
        {
          "indexed": true,
          "internalType": "address",
          "name": "spender",
          "type": "address"
        },
        {
          "indexed": false,
          "internalType": "uint256",
          "name": "amount",
          "type": "uint256"
        }
      ],
      "name": "Approval",
      "type": "event"
    },
    {
      "anonymous": false,
      "inputs": [
        {
          "indexed": true,
          "internalType": "address",
          "name": "from",
          "type": "address"
        },
        {
          "indexed": true,
          "internalType": "address",
          "name": "to",
          "type": "address"
        },
        {
          "indexed": false,
          "internalType": "uint256",
          "name": "amount",
          "type": "uint256"
        }
      ],
      "name": "Transfer",
      "type": "event"
    },
    {
      "inputs": [
        {
          "internalType": "address",
          "name": "",
          "type": "address"
        },
        {
          "internalType": "address",
          "name": "",
          "type": "address"
        }
      ],
      "name": "allowance",
      "outputs": [
        {
          "internalType": "uint256",
          "name": "",
          "type": "uint256"
        }
      ],
      "stateMutability": "view",
      "type": "function"
    },
    {
      "inputs": [
        {
          "internalType": "address",
          "name": "",
          "type": "address"
        }
      ],
      "name": "balanceOf",
      "outputs": [
        {
          "internalType": "uint256",
          "name": "",
          "type": "uint256"
        }
      ],
      "stateMutability": "view",
      "type": "function"
    },
    {
      "inputs": [],
      "name": "totalSupply",
      "outputs": [
        {
          "internalType": "uint256",
          "name": "",
          "type": "uint256"
        }
      ],
      "stateMutability": "view",
      "type": "function"
    },
    {
      "inputs": [
        {
          "internalType": "address",
          "name": "recipient",
          "type": "address"
        },
        {
          "internalType": "uint256",
          "name": "amount",
          "type": "uint256"
        }
      ],
      "name": "transfer",
      "outputs": [
        {
          "internalType": "bool",
          "name": "",
          "type": "bool"
        }
      ],
      "stateMutability": "nonpayable",
      "type": "function"
    }
  ],
  "bytecode": "0x60806040526103e86000556040518060400160405280600b81526020017f417070696e76656e74697600000000000000000000000000000000000000000081525060039081620000509190620005f1565b506040518060400160405280600381526020017f415050000000000000000000000000000000000000000000000000000000000081525060049081620000979190620005f1565b506012600560006101000a81548160ff021916908360ff160217905550348015620000c157600080fd5b5060405162001205380380620012058339818101604052810190620000e79190620008c8565b6000825182620000f891906200095d565b9050825182826200010a9190620009d7565b146200014d576040517f08c379a0000000000000000000000000000000000000000000000000000000008152600401620001449062000a70565b60405180910390fd5b80600054101562000195576040517f08c379a00000000000000000000000000000000000000000000000000000000081526004016200018c9062000ae2565b60405180910390fd5b60005b83518110156200036d578260016000868481518110620001bd57620001bc62000b04565b5b602002602001015173ffffffffffffffffffffffffffffffffffffffff1673ffffffffffffffffffffffffffffffffffffffff168152602001908152602001600020600082825462000210919062000b33565b92505081905550826000808282546200022a919062000b6e565b9250508190555082600160008684815181106200024c576200024b62000b04565b5b602002602001015173ffffffffffffffffffffffffffffffffffffffff1673ffffffffffffffffffffffffffffffffffffffff168152602001908152602001600020541015620002d3576040517f08c379a0000000000000000000000000000000000000000000000000000000008152600401620002ca9062000a70565b60405180910390fd5b838181518110620002e957620002e862000b04565b5b602002602001015173ffffffffffffffffffffffffffffffffffffffff163073ffffffffffffffffffffffffffffffffffffffff167fddf252ad1be2c89b69c2b068fc378daa952ba7f163c4a11628f55a4df523b3ef856040516200034f919062000bba565b60405180910390a38080620003649062000bd7565b91505062000198565b5050505062000c24565b600081519050919050565b7f4e487b7100000000000000000000000000000000000000000000000000000000600052604160045260246000fd5b7f4e487b7100000000000000000000000000000000000000000000000000000000600052602260045260246000fd5b60006002820490506001821680620003f957607f821691505b6020821081036200040f576200040e620003b1565b5b50919050565b60008190508160005260206000209050919050565b60006020601f8301049050919050565b600082821b905092915050565b600060088302620004797fffffffffffffffffffffffffffffffffffffffffffffffffffffffffffffffff826200043a565b6200048586836200043a565b95508019841693508086168417925050509392505050565b6000819050919050565b6000819050919050565b6000620004d2620004cc620004c6846200049d565b620004a7565b6200049d565b9050919050565b6000819050919050565b620004ee83620004b1565b62000506620004fd82620004d9565b84845462000447565b825550505050565b600090565b6200051d6200050e565b6200052a818484620004e3565b505050565b5b8181101562000552576200054660008262000513565b60018101905062000530565b5050565b601f821115620005a1576200056b8162000415565b62000576846200042a565b8101602085101562000586578190505b6200059e62000595856200042a565b8301826200052f565b50505b505050565b600082821c905092915050565b6000620005c660001984600802620005a6565b1980831691505092915050565b6000620005e18383620005b3565b9150826002028217905092915050565b620005fc8262000377565b67ffffffffffffffff81111562000618576200061762000382565b5b620006248254620003e0565b6200063182828562000556565b600060209050601f83116001811462000669576000841562000654578287015190505b620006608582620005d3565b865550620006d0565b601f198416620006798662000415565b60005b82811015620006a3578489015182556001820191506020850194506020810190506200067c565b86831015620006c35784890151620006bf601f891682620005b3565b8355505b6001600288020188555050505b505050505050565b6000604051905090565b600080fd5b600080fd5b600080fd5b6000601f19601f8301169050919050565b6200070d82620006f1565b810181811067ffffffffffffffff821117156200072f576200072e62000382565b5b80604052505050565b600062000744620006d8565b905062000752828262000702565b919050565b600067ffffffffffffffff82111562000775576200077462000382565b5b602082029050602081019050919050565b600080fd5b600073ffffffffffffffffffffffffffffffffffffffff82169050919050565b6000620007b8826200078b565b9050919050565b620007ca81620007ab565b8114620007d657600080fd5b50565b600081519050620007ea81620007bf565b92915050565b600062000807620008018462000757565b62000738565b905080838252602082019050602084028301858111156200082d576200082c62000786565b5b835b818110156200085a5780620008458882620007d9565b8452602084019350506020810190506200082f565b5050509392505050565b600082601f8301126200087c576200087b620006ec565b5b81516200088e848260208601620007f0565b91505092915050565b620008a2816200049d565b8114620008ae57600080fd5b50565b600081519050620008c28162000897565b92915050565b60008060408385031215620008e257620008e1620006e2565b5b600083015167ffffffffffffffff811115620009035762000902620006e7565b5b620009118582860162000864565b92505060206200092485828601620008b1565b9150509250929050565b7f4e487b7100000000000000000000000000000000000000000000000000000000600052601160045260246000fd5b60006200096a826200049d565b915062000977836200049d565b925082820262000987816200049d565b91508282048414831517620009a157620009a06200092e565b5b5092915050565b7f4e487b7100000000000000000000000000000000000000000000000000000000600052601260045260246000fd5b6000620009e4826200049d565b9150620009f1836200049d565b92508262000a045762000a03620009a8565b5b828204905092915050565b600082825260208201905092915050565b7f4f76657220466c6f7720436f6e646974696f6e2e000000000000000000000000600082015250565b600062000a5860148362000a0f565b915062000a658262000a20565b602082019050919050565b6000602082019050818103600083015262000a8b8162000a49565b9050919050565b7f556e64657220466c6f7720436f6e646974696f6e2e0000000000000000000000600082015250565b600062000aca60158362000a0f565b915062000ad78262000a92565b602082019050919050565b6000602082019050818103600083015262000afd8162000abb565b9050919050565b7f4e487b7100000000000000000000000000000000000000000000000000000000600052603260045260246000fd5b600062000b40826200049d565b915062000b4d836200049d565b925082820190508082111562000b685762000b676200092e565b5b92915050565b600062000b7b826200049d565b915062000b88836200049d565b925082820390508181111562000ba35762000ba26200092e565b5b92915050565b62000bb4816200049d565b82525050565b600060208201905062000bd1600083018462000ba9565b92915050565b600062000be4826200049d565b91507fffffffffffffffffffffffffffffffffffffffffffffffffffffffffffffffff820362000c195762000c186200092e565b5b600182019050919050565b6105d18062000c346000396000f3fe608060405234801561001057600080fd5b506004361061004c5760003560e01c806318160ddd1461005157806370a082311461006f578063a9059cbb1461009f578063dd62ed3e146100cf575b600080fd5b6100596100ff565b60405161006691906102fa565b60405180910390f35b61008960048036038101906100849190610378565b610105565b60405161009691906102fa565b60405180910390f35b6100b960048036038101906100b491906103d1565b61011d565b6040516100c6919061042c565b60405180910390f35b6100e960048036038101906100e49190610447565b6102bc565b6040516100f691906102fa565b60405180910390f35b60005481565b60016020528060005260406000206000915090505481565b600081600160003373ffffffffffffffffffffffffffffffffffffffff1673ffffffffffffffffffffffffffffffffffffffff1681526020019081526020016000205410156101a1576040517f08c379a0000000000000000000000000000000000000000000000000000000008152600401610198906104e4565b60405180910390fd5b81600160003373ffffffffffffffffffffffffffffffffffffffff1673ffffffffffffffffffffffffffffffffffffffff16815260200190815260200160002060008282546101f09190610533565b9250508190555081600160008573ffffffffffffffffffffffffffffffffffffffff1673ffffffffffffffffffffffffffffffffffffffff16815260200190815260200160002060008282546102469190610567565b925050819055508273ffffffffffffffffffffffffffffffffffffffff163373ffffffffffffffffffffffffffffffffffffffff167fddf252ad1be2c89b69c2b068fc378daa952ba7f163c4a11628f55a4df523b3ef846040516102aa91906102fa565b60405180910390a36001905092915050565b6002602052816000526040600020602052806000526040600020600091509150505481565b6000819050919050565b6102f4816102e1565b82525050565b600060208201905061030f60008301846102eb565b92915050565b600080fd5b600073ffffffffffffffffffffffffffffffffffffffff82169050919050565b60006103458261031a565b9050919050565b6103558161033a565b811461036057600080fd5b50565b6000813590506103728161034c565b92915050565b60006020828403121561038e5761038d610315565b5b600061039c84828501610363565b91505092915050565b6103ae816102e1565b81146103b957600080fd5b50565b6000813590506103cb816103a5565b92915050565b600080604083850312156103e8576103e7610315565b5b60006103f685828601610363565b9250506020610407858286016103bc565b9150509250929050565b60008115159050919050565b61042681610411565b82525050565b6000602082019050610441600083018461041d565b92915050565b6000806040838503121561045e5761045d610315565b5b600061046c85828601610363565b925050602061047d85828601610363565b9150509250929050565b600082825260208201905092915050565b7f4e6f7420656e6f75676820746f6b656e73000000000000000000000000000000600082015250565b60006104ce601183610487565b91506104d982610498565b602082019050919050565b600060208201905081810360008301526104fd816104c1565b9050919050565b7f4e487b7100000000000000000000000000000000000000000000000000000000600052601160045260246000fd5b600061053e826102e1565b9150610549836102e1565b925082820390508181111561056157610560610504565b5b92915050565b6000610572826102e1565b915061057d836102e1565b925082820190508082111561059557610594610504565b5b9291505056fea2646970667358221220d9e1db1d9ecbe3a7982a2eec53a446172213882b91bd16668383fbd7f981bd3664736f6c63430008110033",
  "linkReferences": {},
  "deployedLinkReferences": {}
}